export const data = {
  txid: "????",
  hash: "ff8766ec873ff55cc0ac17dee7b379a4efa2a5c83dabdd9a30287c7761ad55d5",
  hex: "01000000000103b0c03779c38ddabc044947b164adbcffde8e0ddb3678494f4e8b83f13b37629d0100000000ffffffff060eeae54b70d12caddcc15f8897ebc2b6c3011c9a600aba74d49b969991cab30000000000ffffffff7f715ba408db0289118f9b8578e54e721f1aee10d09844510793b8b20c87903e0100000000ffffffff02d5781100000000001976a914342ab422c9e3ef285efe9882ae54269ed9713dd688ac20a10700000000001976a91488d924f51033b74a895863a5fb57fd545529df7d88ac02483045022100f3c0f555cd39198caf77f6756256801fc57bcabe4892601b9def52259698f40a0220230262841bff151eb617f7d4cdda6bf06d6fa791230c152e47f68bcdd0e6f64a01210204b3506d8903ca601c97a4abab6548e91004c535a5a45e21299a494b146859ca024830450221009dbeb64ddd4646e1118503c87feaa95c531b5178c6e543be782f6ecb05e8fbe602203945570f8dc56c145617f0283fa4032e0b7895a9cf2a81c7b65665b8ac608cb00121026602a5dc59c30f485b2c457ac8e2f617e27b10a1d2ae76f3231f9b01dff089640248304502210095e300886ec4df78e39d6d0cf5e5e531ded8f42f00e5730c371d8951867dad5b02203c55f9403f6c2aac444213161a93a86661e7367d4007be74ffb3981387cc1c790121023f0aadfeb71a4964c5087fec8b052c8236051dae838d4747543330c6b266ce6e00000000",
  raw: {
    version: 1,
    marker: 0,
    flag: 1,
    inputs: [
      {
        hash: "b0c03779c38ddabc044947b164adbcffde8e0ddb3678494f4e8b83f13b37629d",
        index: 1,
        script: "",
        sequence: 4294967295,
      },
      {
        hash: "060eeae54b70d12caddcc15f8897ebc2b6c3011c9a600aba74d49b969991cab3",
        index: 0,
        script: "",
        sequence: 4294967295,
      },
      {
        hash: "7f715ba408db0289118f9b8578e54e721f1aee10d09844510793b8b20c87903e",
        index: 1,
        script: "",
        sequence: 4294967295,
      },
    ],
    outputs: [
      {
        value: 1145045,
        script: "76a914342ab422c9e3ef285efe9882ae54269ed9713dd688ac",
      },
      {
        value: 500000,
        script: "76a91488d924f51033b74a895863a5fb57fd545529df7d88ac",
      },
    ],
    witness: [
      [
        "3045022100f3c0f555cd39198caf77f6756256801fc57bcabe4892601b9def52259698f40a0220230262841bff151eb617f7d4cdda6bf06d6fa791230c152e47f68bcdd0e6f64a01",
        "0204b3506d8903ca601c97a4abab6548e91004c535a5a45e21299a494b146859ca",
      ],
      [
        "30450221009dbeb64ddd4646e1118503c87feaa95c531b5178c6e543be782f6ecb05e8fbe602203945570f8dc56c145617f0283fa4032e0b7895a9cf2a81c7b65665b8ac608cb001",
        "026602a5dc59c30f485b2c457ac8e2f617e27b10a1d2ae76f3231f9b01dff08964",
      ],
      [
        "304502210095e300886ec4df78e39d6d0cf5e5e531ded8f42f00e5730c371d8951867dad5b02203c55f9403f6c2aac444213161a93a86661e7367d4007be74ffb3981387cc1c7901",
        "023f0aadfeb71a4964c5087fec8b052c8236051dae838d4747543330c6b266ce6e",
      ],
    ],
    locktime: 0,
  },
};
